:020000002B2AA9
:0E000600213083120313FD00FD0B07280800B4
:06001400000000000800DE
:10001A000F3083120313FC004730FD00FD0B132839
:0A002A00FC0B132800000000080082
:1000340083120313C11B2028861321288617411B12
:100044002528061326280617C11A2A2886122B28C3
:100054008616411A2F280612302806162918342825
:1000640006143528061086140A208610C1193C2867
:1000740086133D288617411941280613422806177E
:10008400C118462886124728861641184B2806129E
:100094004C280616291850280614512806108614D0
:1000A4000A208610291C58280D20592803200800EE
:1000B40083120313F801F9011030FC00710DF80DDF
:1000C400F90D7408F8027508031C750FF90203187A
:1000D40072287408F80775080318750FF9070310D8
:0A00E400F00DF10DFC0B6028080080
:1000EE0083120313BF0105303F02031885283F0812
:1000FE003E07840020308000BF0A7A283F083E0762
:10010E0084008001BF033F083E07C0000A30F400A0
:10011E00F5013C08F0003D08F1005A207808F00087
:10012E007908F1003030F007400884007008800034
:10013E000A30F400F5013C08F0003D08F1005A20A9
:10014E007008BC007108BD0000307106031DB12897
:10015E0000307006031DB428B628BF038A28080095
:10016E008312031329103C08C1001A202914080019
:10017E0083120313B801B9013308BA003408BB0067
:10018E0080303406F00080307002031DD02800301D
:10019E0033020318DE280130B8000030B9003308EE
:1001AE00003CBA003408031C013EBB01BB023A08F6
:1001BE00BC003B08BD003508BE0077200630B600F7
:1001CE000030B7003708003C031DEF283608003C0E
:1001DE0003180A2936083507F20001303602F000FE
:1001EE000030031C013E3702F10070083507840011
:1001FE000008F00072088400700880000130B6021A
:10020E00031CB703E9283508840020308000380825
:10021E00390403192829B601B701360835078400B9
:10022E000008203A031D1F29B60A0319B70A14291C
:10023E000130B602031CB7033608350784002D3093
:04024E008000080024
:10025200023083120313FC004930FD00FD0B2F29ED
:0A026200FC0B2F290000000008002B
:10026C004829803083120313B3005B29C030B300DC
:10027C005B299430B3005B29D430B3005B29803008
:10028C00B3005B29831203133308013A031937298E
:10029C003308023A03193C293308033A03193F295E
:1002AC003308043A0319422945293403F000330872
:1002BC00F0077008B3007008C1001A202910B601AD
:1002CC0036083507840000080319742936083507E9
:1002DC0084000008BC00B720B60A6629291408005F
:0E02EC00831203132B088A002A0882000800E0
:1002FA00831203132708B3002808B4002C30B50072
:10030A00BF200130C1001A200130B3000130B4000F
:10031A002030B50036210130B3000730B4002C304C
:06032A00B50036210800B9
:100330008316031386100610061286120613861300
:1003400083128610061086130613861206120D20DD
:100350000D200D208616061686140A2086100D2004
:1003600086140A2086100D2086140A2086100D207F
:10037000061286140A2086100D2086140A20861084
:100380008612861786140A2086100D2086130616FC
:1003900086140A208610061286140A2086100D2064
:1003A00086140A208610061686140A2086100D2050
:1003B000061286140A208610861706178616061659
:0C03C00086140A2086100D202914080065
:1003CC0083120313B1012D08F1000130F000710804
:1003DC000319F429F00D7010FF3EEE297008B000DF
:1003EC002C08840070080005F10071080130031D11
:1003FC000030F0002F08F00603191C2A2E08003CD0
:10040C0003180C2A29212921AE03042A2C08840064
:10041C0030080005F10071080130031D0030F000B8
:10042C002F08F00603191C2AFF30B1003108F00028
:02043C000800B6
:10043E0076218A110A128000840AAA0A0319AB0ACD
:08044E00F003031D1F2A080042
:10045600433083120313A0006F30A1007530A20051
:100466006E30A3007430A4003A30A500A601A7019F
:10047600A8010330831685008601073083129F008A
:1004860098210C30C1001A207D210530AC00AD0149
:100496000130AE000130AF00E62170080319712A61
:1004A600A70A0319A80A8030F000803028067002D7
:1004B600031D5F2A2708003C0318622A05157D21C3
:1004C6000630FB001330FC00AD30FD00FD0B692A41
:1004D600FC0B692AFB0B692A000000000530AC0002
:1004E6000130AD000130AE000130AF00E6217008EA
:1004F6000319A42A8030F000803028067002031DFC
:10050600862A2708003C0318952A0130A702031CF7
:10051600A80300302806031D922A00302706031D73
:10052600952A05117D210630FB001330FC00AD3005
:10053600FD00FD0B9C2AFC0B9C2AFB0B9C2A000051
:060546000000482AA52A6E
:02400E006A3D09
:00000001FF
