:02000000AD2928
:06000600000000000800EC
:0E000C00213083120313FD00FD0B0A280800AB
:10001A000F3083120313FC004730FD00FD0B132839
:0A002A00FC0B132800000000080082
:10003400831603139818202800001A2837088312FF
:040044009900080017
:1000480083160313B71B2B28831288132D288312BA
:1000580088178316371B3328831208133528831211
:1000680008178316B71A3B28831288123D28831273
:1000780088168316371A43288312081245288312D4
:1000880008166618492808154A28081188150320F3
:1000980088118316B7195328831288135528831299
:1000A8008817831637195B28831208135D28831273
:1000B80008178316B71863288312881265288312D5
:1000C8008816831637186B28831208126D28831236
:1000D8000816661871280815722808118815032053
:0E00E8008811661C79280D207A280620080051
:1000F600831603138811081108128812081388132F
:1001060083128811081188130813881208120D200B
:100116000D200D20881608168815032088110D203D
:100126008815032088110D208815032088110D20BD
:1001360008128815032088110D20881503208811C0
:10014600881288178815032088110D208813081631
:1001560088150320881108128815032088110D20A0
:1001660088150320881108168815032088110D208C
:10017600081288150320881188170817881608168C
:0C0186008815032088110D206614080065
:0E0192008312031368088A00670882000800C1
:1001A00083120313EF016D0884000008EE006E084F
:1001B000003A0319E6286E088316B7001A20EF0AE2
:0E01C0006F086D0784000008EE00D7280800C5
:1001CE0083160313981690308312980083168717A0
:1001DE00071383128C1EF6281A08F000F028080068
:1001EE008312031366106D088316B700242066145D
:0201FE000800F7
:100200001229803083120313E9002529C030E90048
:1002100025299430E9002529D430E90025298030AA
:10022000E9002529831203136908013A03190129FA
:100230006908023A031906296908033A03190929CA
:100240006908043A03190C290F296A03F0006908A8
:10025000F0077008E90070088316B70024206610C4
:10026000EC016C086B078400000803193F296C0837
:100270006B0784000008ED00F720EC0A31296614B2
:02028000080074
:100282008312031306153430FC00F130FD00FD0B20
:0E0292004829FC0B4829000000000611080056
:1002A0005B3083120313ED00D0200B30FB002630AF
:1002B000FC005D30FD00FD0B5B29FC0B5B29FB0B9B
:1002C0005B2900000000A030ED00D0200B30FB00C7
:1002D0002630FC005D30FD00FD0B6C29FC0B6C2909
:1002E000FB0B6C29000000002F30ED00D0200B30FC
:1002F000FB002630FC005D30FD00FD0B7D29FC0B72
:100300007D29FB0B7D29000000001A308316B70001
:040310001A200800A7
:10031400C9208A110A128000840AE70A0319E80A2C
:08032400F003031D8A29080003
:10032C000330831603138600831286017B20013071
:10033C008316B70024200C308316B70024203330EA
:0E034C00831699001815E72006118611080087
:10035A00382296210618BA2941210130E9000130D4
:10036A00EA002030EB000021D4298618D429013074
:10037A00E9000130EA004D30EB00002186155021DA
:10038A003330FB00BB30FC00DF30FD00FD0BCB2916
:10039A00FC0BCB29FB0BCB29000000008611AF29EF
:0203AA00D52953
:10047000203084003B3083120313F000DB30E700B0
:100480000130E8008A21A030840017300313F00007
:100490001630E7000230E8008A215B3084000B3020
:1004A0000313F0002D30E7000230E8008A21080035
:1003B60041346334633465347334733420344134E4
:0E03C6006C346C346F34773465346434003436
:1003D40041346334633465347334733420344434C3
:1003E40065346E3469346534643420346334613480
:1003F4007234203472346534673420344B344434DA
:0C04040046343034303431340D340034D0
:100410004134633463346534733473342034443486
:0C04200065346E34693465346434003493
:10042C00413454342B3443344D34473453343D34F9
:10043C0022342B343134323433343434353436348E
:0E044C00373438343934303422340D3400342F
:10045A00413454342B3443344D34473446343D34D8
:06046A0031340D340034B2
:02400E007A3BFB
:00000001FF
